{
  "contractName": "DiskSpaceRenter",
  "abi": [
    {
      "inputs": [
        {
          "internalType": "uint256",
          "name": "",
          "type": "uint256"
        }
      ],
      "name": "duplicationss",
      "outputs": [
        {
          "internalType": "uint256",
          "name": "",
          "type": "uint256"
        }
      ],
      "stateMutability": "view",
      "type": "function",
      "constant": true
    },
    {
      "inputs": [
        {
          "internalType": "uint256",
          "name": "",
          "type": "uint256"
        }
      ],
      "name": "duration",
      "outputs": [
        {
          "internalType": "uint256",
          "name": "",
          "type": "uint256"
        }
      ],
      "stateMutability": "view",
      "type": "function",
      "constant": true
    },
    {
      "inputs": [
        {
          "internalType": "uint256",
          "name": "",
          "type": "uint256"
        }
      ],
      "name": "indexes",
      "outputs": [
        {
          "internalType": "uint256",
          "name": "",
          "type": "uint256"
        }
      ],
      "stateMutability": "view",
      "type": "function",
      "constant": true
    },
    {
      "inputs": [
        {
          "internalType": "address",
          "name": "",
          "type": "address"
        }
      ],
      "name": "providerList",
      "outputs": [
        {
          "internalType": "uint256",
          "name": "space",
          "type": "uint256"
        }
      ],
      "stateMutability": "view",
      "type": "function",
      "constant": true
    },
    {
      "inputs": [
        {
          "internalType": "address",
          "name": "",
          "type": "address"
        },
        {
          "internalType": "uint256",
          "name": "",
          "type": "uint256"
        }
      ],
      "name": "providerToRequester",
      "outputs": [
        {
          "internalType": "address",
          "name": "",
          "type": "address"
        }
      ],
      "stateMutability": "view",
      "type": "function",
      "constant": true
    },
    {
      "inputs": [
        {
          "internalType": "uint256",
          "name": "",
          "type": "uint256"
        }
      ],
      "name": "providers",
      "outputs": [
        {
          "internalType": "address",
          "name": "",
          "type": "address"
        }
      ],
      "stateMutability": "view",
      "type": "function",
      "constant": true
    },
    {
      "inputs": [
        {
          "internalType": "address",
          "name": "",
          "type": "address"
        }
      ],
      "name": "requesterFunds",
      "outputs": [
        {
          "internalType": "uint256",
          "name": "",
          "type": "uint256"
        }
      ],
      "stateMutability": "view",
      "type": "function",
      "constant": true
    },
    {
      "inputs": [
        {
          "internalType": "address",
          "name": "",
          "type": "address"
        }
      ],
      "name": "requesterList",
      "outputs": [
        {
          "internalType": "uint256",
          "name": "space",
          "type": "uint256"
        },
        {
          "internalType": "uint256",
          "name": "duplications",
          "type": "uint256"
        },
        {
          "internalType": "uint256",
          "name": "duration",
          "type": "uint256"
        },
        {
          "internalType": "uint256",
          "name": "startTime",
          "type": "uint256"
        }
      ],
      "stateMutability": "view",
      "type": "function",
      "constant": true
    },
    {
      "inputs": [
        {
          "internalType": "address",
          "name": "",
          "type": "address"
        },
        {
          "internalType": "uint256",
          "name": "",
          "type": "uint256"
        }
      ],
      "name": "requesterToProvider",
      "outputs": [
        {
          "internalType": "address",
          "name": "",
          "type": "address"
        }
      ],
      "stateMutability": "view",
      "type": "function",
      "constant": true
    },
    {
      "inputs": [
        {
          "internalType": "uint256",
          "name": "",
          "type": "uint256"
        }
      ],
      "name": "requesters",
      "outputs": [
        {
          "internalType": "address",
          "name": "",
          "type": "address"
        }
      ],
      "stateMutability": "view",
      "type": "function",
      "constant": true
    },
    {
      "inputs": [
        {
          "internalType": "uint256",
          "name": "",
          "type": "uint256"
        }
      ],
      "name": "requestersOfTransactions",
      "outputs": [
        {
          "internalType": "address",
          "name": "",
          "type": "address"
        }
      ],
      "stateMutability": "view",
      "type": "function",
      "constant": true
    },
    {
      "inputs": [
        {
          "internalType": "uint256",
          "name": "",
          "type": "uint256"
        }
      ],
      "name": "space",
      "outputs": [
        {
          "internalType": "uint256",
          "name": "",
          "type": "uint256"
        }
      ],
      "stateMutability": "view",
      "type": "function",
      "constant": true
    },
    {
      "inputs": [
        {
          "internalType": "uint256",
          "name": "",
          "type": "uint256"
        }
      ],
      "name": "sstartTime",
      "outputs": [
        {
          "internalType": "uint256",
          "name": "",
          "type": "uint256"
        }
      ],
      "stateMutability": "view",
      "type": "function",
      "constant": true
    },
    {
      "inputs": [
        {
          "internalType": "address",
          "name": "a",
          "type": "address"
        }
      ],
      "name": "toBytes",
      "outputs": [
        {
          "internalType": "bytes",
          "name": "",
          "type": "bytes"
        }
      ],
      "stateMutability": "pure",
      "type": "function",
      "constant": true
    },
    {
      "inputs": [],
      "name": "sayHello",
      "outputs": [
        {
          "internalType": "string",
          "name": "",
          "type": "string"
        }
      ],
      "stateMutability": "pure",
      "type": "function",
      "constant": true
    },
    {
      "inputs": [],
      "name": "addRequester",
      "outputs": [
        {
          "internalType": "bool",
          "name": "added",
          "type": "bool"
        }
      ],
      "stateMutability": "nonpayable",
      "type": "function"
    },
    {
      "inputs": [
        {
          "internalType": "uint256",
          "name": "_spaceInMB",
          "type": "uint256"
        }
      ],
      "name": "addProvider",
      "outputs": [
        {
          "internalType": "bool",
          "name": "added",
          "type": "bool"
        }
      ],
      "stateMutability": "nonpayable",
      "type": "function"
    },
    {
      "inputs": [],
      "name": "getRequesters",
      "outputs": [
        {
          "internalType": "address[]",
          "name": "",
          "type": "address[]"
        }
      ],
      "stateMutability": "view",
      "type": "function",
      "constant": true
    },
    {
      "inputs": [],
      "name": "getProviders",
      "outputs": [
        {
          "internalType": "address[]",
          "name": "",
          "type": "address[]"
        }
      ],
      "stateMutability": "view",
      "type": "function",
      "constant": true
    },
    {
      "inputs": [],
      "name": "getCurrentUser",
      "outputs": [
        {
          "internalType": "address",
          "name": "user",
          "type": "address"
        }
      ],
      "stateMutability": "view",
      "type": "function",
      "constant": true
    },
    {
      "inputs": [],
      "name": "currentUserTransaction",
      "outputs": [
        {
          "components": [
            {
              "internalType": "uint256",
              "name": "space",
              "type": "uint256"
            },
            {
              "internalType": "uint256",
              "name": "duplications",
              "type": "uint256"
            },
            {
              "internalType": "uint256",
              "name": "duration",
              "type": "uint256"
            },
            {
              "internalType": "string[]",
              "name": "cids",
              "type": "string[]"
            },
            {
              "internalType": "uint256",
              "name": "startTime",
              "type": "uint256"
            },
            {
              "internalType": "address[]",
              "name": "providersList",
              "type": "address[]"
            }
          ],
          "internalType": "struct Request",
          "name": "r",
          "type": "tuple"
        }
      ],
      "stateMutability": "view",
      "type": "function",
      "constant": true
    },
    {
      "inputs": [
        {
          "internalType": "address",
          "name": "sender",
          "type": "address"
        }
      ],
      "name": "getUserTransaction",
      "outputs": [
        {
          "components": [
            {
              "internalType": "uint256",
              "name": "space",
              "type": "uint256"
            },
            {
              "internalType": "uint256",
              "name": "duplications",
              "type": "uint256"
            },
            {
              "internalType": "uint256",
              "name": "duration",
              "type": "uint256"
            },
            {
              "internalType": "string[]",
              "name": "cids",
              "type": "string[]"
            },
            {
              "internalType": "uint256",
              "name": "startTime",
              "type": "uint256"
            },
            {
              "internalType": "address[]",
              "name": "providersList",
              "type": "address[]"
            }
          ],
          "internalType": "struct Request",
          "name": "r",
          "type": "tuple"
        }
      ],
      "stateMutability": "view",
      "type": "function",
      "constant": true
    },
    {
      "inputs": [
        {
          "internalType": "address",
          "name": "sender",
          "type": "address"
        }
      ],
      "name": "getProviderSpace",
      "outputs": [
        {
          "internalType": "uint256",
          "name": "",
          "type": "uint256"
        }
      ],
      "stateMutability": "view",
      "type": "function",
      "constant": true
    },
    {
      "inputs": [
        {
          "internalType": "string",
          "name": "cid",
          "type": "string"
        }
      ],
      "name": "addCIDToTransaction",
      "outputs": [],
      "stateMutability": "nonpayable",
      "type": "function"
    },
    {
      "inputs": [],
      "name": "getTransactionOfProvider",
      "outputs": [
        {
          "internalType": "address",
          "name": "requester",
          "type": "address"
        }
      ],
      "stateMutability": "view",
      "type": "function",
      "constant": true
    },
    {
      "inputs": [
        {
          "internalType": "uint256",
          "name": "_spaceInMB",
          "type": "uint256"
        },
        {
          "internalType": "uint256",
          "name": "_duplications",
          "type": "uint256"
        },
        {
          "internalType": "uint256",
          "name": "_duration",
          "type": "uint256"
        },
        {
          "internalType": "string[]",
          "name": "_cids",
          "type": "string[]"
        },
        {
          "internalType": "address[]",
          "name": "gettingProvider",
          "type": "address[]"
        }
      ],
      "name": "requestSpace",
      "outputs": [],
      "stateMutability": "payable",
      "type": "function",
      "payable": true
    },
    {
      "inputs": [],
      "name": "payRent",
      "outputs": [],
      "stateMutability": "payable",
      "type": "function",
      "payable": true
    },
    {
      "inputs": [
        {
          "internalType": "address",
          "name": "requester",
          "type": "address"
        }
      ],
      "name": "approveRequest",
      "outputs": [
        {
          "internalType": "bool",
          "name": "",
          "type": "bool"
        }
      ],
      "stateMutability": "nonpayable",
      "type": "function"
    },
    {
      "inputs": [
        {
          "internalType": "address",
          "name": "r",
          "type": "address"
        }
      ],
      "name": "releasePayment",
      "outputs": [],
      "stateMutability": "nonpayable",
      "type": "function"
    },
    {
      "inputs": [],
      "name": "getAllTransactions",
      "outputs": [
        {
          "internalType": "uint256[]",
          "name": "",
          "type": "uint256[]"
        },
        {
          "internalType": "uint256[]",
          "name": "",
          "type": "uint256[]"
        },
        {
          "internalType": "uint256[]",
          "name": "",
          "type": "uint256[]"
        },
        {
          "internalType": "uint256[]",
          "name": "",
          "type": "uint256[]"
        },
        {
          "internalType": "address[]",
          "name": "",
          "type": "address[]"
        },
        {
          "internalType": "uint256[]",
          "name": "",
          "type": "uint256[]"
        }
      ],
      "stateMutability": "nonpayable",
      "type": "function"
    }
  ],
  "bytecode": "0x608060405234801561001057600080fd5b50613cb7806100206000396000f3fe6080604052600436106101cd5760003560e01c806377e2f10b116100f7578063a709c4fe11610095578063d471f00711610064578063d471f00714610745578063e0e21cad14610761578063edc922a91461079e578063ef5fb05b146107c9576101cd565b8063a709c4fe146106a7578063c253c7bc146106b1578063c61074cc146106f1578063cb0830a31461071a576101cd565b80638c2fbb80116100d15780638c2fbb80146105b357806392f8eb94146105f057806397c2f1b01461062d578063a1b8ec791461066a576101cd565b806377e2f10b146105105780638031e8fd14610539578063876ff19214610576576101cd565b806343ae37c31161016f57806355c69f9a1161013e57806355c69f9a1461042e578063593b79fe146104595780635e1a6c171461049657806362027c31146104d3576101cd565b806343ae37c31461034c57806345b3f31d1461037757806350f3fc81146103b45780635122495a146103f1576101cd565b80632c666ecc116101ab5780632c666ecc1461027c5780632f1e0564146102b957806335bc5462146102e45780634196afb114610321576101cd565b8063061dff9a146101d25780630e1e4a3c1461020f57806327506f531461024c575b600080fd5b3480156101de57600080fd5b506101f960048036038101906101f49190612f2d565b6107f4565b6040516102069190612f75565b60405180910390f35b34801561021b57600080fd5b5061023660048036038101906102319190612f2d565b610cf3565b6040516102439190612fa9565b60405180910390f35b34801561025857600080fd5b50610261610d11565b60405161027396959493929190613140565b60405180910390f35b34801561028857600080fd5b506102a3600480360381019061029e91906131f7565b611372565b6040516102b09190613233565b60405180910390f35b3480156102c557600080fd5b506102ce6113b1565b6040516102db91906134a8565b60405180910390f35b3480156102f057600080fd5b5061030b600480360381019061030691906131f7565b611597565b6040516103189190612fa9565b60405180910390f35b34801561032d57600080fd5b506103366115bb565b6040516103439190613233565b60405180910390f35b34801561035857600080fd5b50610361611699565b60405161036e9190613233565b60405180910390f35b34801561038357600080fd5b5061039e60048036038101906103999190612f2d565b6116a1565b6040516103ab9190612fa9565b60405180910390f35b3480156103c057600080fd5b506103db60048036038101906103d691906131f7565b6116ed565b6040516103e89190613233565b60405180910390f35b3480156103fd57600080fd5b5061041860048036038101906104139190612f2d565b61172c565b6040516104259190612fa9565b60405180910390f35b34801561043a57600080fd5b50610443611744565b6040516104509190612f75565b60405180910390f35b34801561046557600080fd5b50610480600480360381019061047b9190612f2d565b611902565b60405161048d919061351f565b60405180910390f35b3480156104a257600080fd5b506104bd60048036038101906104b891906131f7565b61192b565b6040516104ca9190613233565b60405180910390f35b3480156104df57600080fd5b506104fa60048036038101906104f59190612f2d565b61196a565b60405161050791906134a8565b60405180910390f35b34801561051c57600080fd5b5061053760048036038101906105329190612f2d565b611b52565b005b34801561054557600080fd5b50610560600480360381019061055b91906131f7565b611dd7565b60405161056d9190612f75565b60405180910390f35b34801561058257600080fd5b5061059d600480360381019061059891906131f7565b611ff8565b6040516105aa9190612fa9565b60405180910390f35b3480156105bf57600080fd5b506105da60048036038101906105d591906131f7565b61201c565b6040516105e79190612fa9565b60405180910390f35b3480156105fc57600080fd5b50610617600480360381019061061291906131f7565b612040565b6040516106249190612fa9565b60405180910390f35b34801561063957600080fd5b50610654600480360381019061064f91906131f7565b612064565b6040516106619190612fa9565b60405180910390f35b34801561067657600080fd5b50610691600480360381019061068c9190613541565b612088565b60405161069e9190613233565b60405180910390f35b6106af6120d6565b005b3480156106bd57600080fd5b506106d860048036038101906106d39190612f2d565b6120d8565b6040516106e89493929190613581565b60405180910390f35b3480156106fd57600080fd5b50610718600480360381019061071391906136fb565b612108565b005b34801561072657600080fd5b5061072f612187565b60405161073c9190613744565b60405180910390f35b61075f600480360381019061075a919061390f565b612215565b005b34801561076d57600080fd5b5061078860048036038101906107839190613541565b61240f565b6040516107959190613233565b60405180910390f35b3480156107aa57600080fd5b506107b361245d565b6040516107c09190613744565b60405180910390f35b3480156107d557600080fd5b506107de6124eb565b6040516107eb9190613a0c565b60405180910390f35b6000806000905060005b600180549050811015610894576001818154811061081f5761081e613a2e565b5b9060005260206000200160009054906101000a900473ffffffffffffffffffffffffffffffffffffffff1673ffffffffffffffffffffffffffffffffffffffff163373ffffffffffffffffffffffffffffffffffffffff160361088157600191505b808061088c90613a8c565b9150506107fe565b5060011515811515146108a657600080fd5b6000339050600080600360008473ffffffffffffffffffffffffffffffffffffffff1673ffffffffffffffffffffffffffffffffffffffff1681526020019081526020016000206000015414610ce757600360008373ffffffffffffffffffffffffffffffffffffffff1673ffffffffffffffffffffffffffffffffffffffff16815260200190815260200160002060000154600260008773ffffffffffffffffffffffffffffffffffffffff1673ffffffffffffffffffffffffffffffffffffffff1681526020019081526020016000206000015411610ce157600260008673ffffffffffffffffffffffffffffffffffffffff1673ffffffffffffffffffffffffffffffffffffffff16815260200190815260200160002060010154600560008773ffffffffffffffffffffffffffffffffffffffff1673ffffffffffffffffffffffffffffffffffffffff168152602001908152602001600020805490501015610cdb57600460008373ffffffffffffffffffffffffffffffffffffffff1673ffffffffffffffffffffffffffffffffffffffff168152602001908152602001600020859080600181540180825580915050600190039060005260206000200160009091909190916101000a81548173ffffffffffffffffffffffffffffffffffffffff021916908373ffffffffffffffffffffffffffffffffffffffff160217905550600560008673ffffffffffffffffffffffffffffffffffffffff1673ffffffffffffffffffffffffffffffffffffffff168152602001908152602001600020829080600181540180825580915050600190039060005260206000200160009091909190916101000a81548173ffffffffffffffffffffffffffffffffffffffff021916908373ffffffffffffffffffffffffffffffffffffffff160217905550600260008673ffffffffffffffffffffffffffffffffffffffff1673ffffffffffffffffffffffffffffffffffffffff16815260200190815260200160002060000154600360008473ffffffffffffffffffffffffffffffffffffffff1673ffffffffffffffffffffffffffffffffffffffff1681526020019081526020016000206000016000828254610be19190613ad4565b9250508190555042600260008773ffffffffffffffffffffffffffffffffffffffff1673ffffffffffffffffffffffffffffffffffffffff16815260200190815260200160002060040181905550600260008673ffffffffffffffffffffffffffffffffffffffff1673ffffffffffffffffffffffffffffffffffffffff168152602001908152602001600020600501829080600181540180825580915050600190039060005260206000200160009091909190916101000a81548173ffffffffffffffffffffffffffffffffffffffff021916908373ffffffffffffffffffffffffffffffffffffffff16021790555060019050610cdc565b5b610ce2565b5b610ce8565b5b809350505050919050565b60036020528060005260406000206000915090508060000154905081565b60608060608060608060005b60008054905081101561112f57600060026000808481548110610d4357610d42613a2e565b5b9060005260206000200160009054906101000a900473ffffffffffffffffffffffffffffffffffffffff1673ffffffffffffffffffffffffffffffffffffffff1673ffffffffffffffffffffffffffffffffffffffff168152602001908152602001600020600401541461111c57600b60008281548110610dc757610dc6613a2e565b5b9060005260206000200160009054906101000a900473ffffffffffffffffffffffffffffffffffffffff169080600181540180825580915050600190039060005260206000200160009091909190916101000a81548173ffffffffffffffffffffffffffffffffffffffff021916908373ffffffffffffffffffffffffffffffffffffffff160217905550600760026000808481548110610e6b57610e6a613a2e565b5b9060005260206000200160009054906101000a900473ffffffffffffffffffffffffffffffffffffffff1673ffffffffffffffffffffffffffffffffffffffff1673ffffffffffffffffffffffffffffffffffffffff168152602001908152602001600020600001549080600181540180825580915050600190039060005260206000200160009091909190915055600860026000808481548110610f1357610f12613a2e565b5b9060005260206000200160009054906101000a900473ffffffffffffffffffffffffffffffffffffffff1673ffffffffffffffffffffffffffffffffffffffff1673ffffffffffffffffffffffffffffffffffffffff168152602001908152602001600020600101549080600181540180825580915050600190039060005260206000200160009091909190915055600a60026000808481548110610fbb57610fba613a2e565b5b9060005260206000200160009054906101000a900473ffffffffffffffffffffffffffffffffffffffff1673ffffffffffffffffffffffffffffffffffffffff1673ffffffffffffffffffffffffffffffffffffffff16815260200190815260200160002060040154908060018154018082558091505060019003906000526020600020016000909190919091505560096002600080848154811061106357611062613a2e565b5b9060005260206000200160009054906101000a900473ffffffffffffffffffffffffffffffffffffffff1673ffffffffffffffffffffffffffffffffffffffff1673ffffffffffffffffffffffffffffffffffffffff168152602001908152602001600020600201549080600181540180825580915050600190039060005260206000200160009091909190915055600c8190806001815401808255809150506001900390600052602060002001600090919091909150555b808061112790613a8c565b915050610d1d565b50600760086009600a600b600c8580548060200260200160405190810160405280929190818152602001828054801561118757602002820191906000526020600020905b815481526020019060010190808311611173575b50505050509550848054806020026020016040519081016040528092919081815260200182805480156111d957602002820191906000526020600020905b8154815260200190600101908083116111c5575b505050505094508380548060200260200160405190810160405280929190818152602001828054801561122b57602002820191906000526020600020905b815481526020019060010190808311611217575b505050505093508280548060200260200160405190810160405280929190818152602001828054801561127d57602002820191906000526020600020905b815481526020019060010190808311611269575b505050505092508180548060200260200160405190810160405280929190818152602001828054801561130557602002820191906000526020600020905b8160009054906101000a900473ffffffffffffffffffffffffffffffffffffffff1673ffffffffffffffffffffffffffffffffffffffff16815260200190600101908083116112bb575b505050505091508080548060200260200160405190810160405280929190818152602001828054801561135757602002820191906000526020600020905b815481526020019060010190808311611343575b50505050509050955095509550955095509550909192939495565b600b818154811061138257600080fd5b906000526020600020016000915054906101000a900473ffffffffffffffffffffffffffffffffffffffff1681565b6113b9612c94565b600260003373ffffffffffffffffffffffffffffffffffffffff1673ffffffffffffffffffffffffffffffffffffffff1681526020019081526020016000206040518060c001604052908160008201548152602001600182015481526020016002820154815260200160038201805480602002602001604051908101604052809291908181526020016000905b828210156114f257838290600052602060002001805461146590613b37565b80601f016020809104026020016040519081016040528092919081815260200182805461149190613b37565b80156114de5780601f106114b3576101008083540402835291602001916114de565b820191906000526020600020905b8154815290600101906020018083116114c157829003601f168201915b505050505081526020019060010190611446565b505050508152602001600482015481526020016005820180548060200260200160405190810160405280929190818152602001828054801561158957602002820191906000526020600020905b8160009054906101000a900473ffffffffffffffffffffffffffffffffffffffff1673ffffffffffffffffffffffffffffffffffffffff168152602001906001019080831161153f575b505050505081525050905090565b600981815481106115a757600080fd5b906000526020600020016000915090505481565b6000803390506000600460008373ffffffffffffffffffffffffffffffffffffffff1673ffffffffffffffffffffffffffffffffffffffff16815260200190815260200160002080549050111561169157600460008273ffffffffffffffffffffffffffffffffffffffff1673ffffffffffffffffffffffffffffffffffffffff16815260200190815260200160002060008154811061165e5761165d613a2e565b5b9060005260206000200160009054906101000a900473ffffffffffffffffffffffffffffffffffffffff16915050611696565b809150505b90565b600033905090565b6000600360008373ffffffffffffffffffffffffffffffffffffffff1673ffffffffffffffffffffffffffffffffffffffff168152602001908152602001600020600001549050919050565b600181815481106116fd57600080fd5b906000526020600020016000915054906101000a900473ffffffffffffffffffffffffffffffffffffffff1681565b60066020528060005260406000206000915090505481565b60008033905060006001905060005b6000805490508110156117e9578273ffffffffffffffffffffffffffffffffffffffff166000828154811061178b5761178a613a2e565b5b9060005260206000200160009054906101000a900473ffffffffffffffffffffffffffffffffffffffff1673ffffffffffffffffffffffffffffffffffffffff16036117d657600091505b80806117e190613a8c565b915050611753565b5060005b600180549050811015611883578273ffffffffffffffffffffffffffffffffffffffff166001828154811061182557611824613a2e565b5b9060005260206000200160009054906101000a900473ffffffffffffffffffffffffffffffffffffffff1673ffffffffffffffffffffffffffffffffffffffff160361187057600091505b808061187b90613a8c565b9150506117ed565b5080156118f8576000339080600181540180825580915050600190039060005260206000200160009091909190916101000a81548173ffffffffffffffffffffffffffffffffffffffff021916908373ffffffffffffffffffffffffffffffffffffffff1602179055506001925050506118ff565b6000925050505b90565b6060816040516020016119159190613bb0565b6040516020818303038152906040529050919050565b6000818154811061193b57600080fd5b906000526020600020016000915054906101000a900473ffffffffffffffffffffffffffffffffffffffff1681565b611972612c94565b600260008373ffffffffffffffffffffffffffffffffffffffff1673ffffffffffffffffffffffffffffffffffffffff1681526020019081526020016000206040518060c001604052908160008201548152602001600182015481526020016002820154815260200160038201805480602002602001604051908101604052809291908181526020016000905b82821015611aab578382906000526020600020018054611a1e90613b37565b80601f0160208091040260200160405190810160405280929190818152602001828054611a4a90613b37565b8015611a975780601f10611a6c57610100808354040283529160200191611a97565b820191906000526020600020905b815481529060010190602001808311611a7a57829003601f168201915b5050505050815260200190600101906119ff565b5050505081526020016004820154815260200160058201805480602002602001604051908101604052809291908181526020018280548015611b4257602002820191906000526020600020905b8160009054906101000a900473ffffffffffffffffffffffffffffffffffffffff1673ffffffffffffffffffffffffffffffffffffffff1681526020019060010190808311611af8575b5050505050815250509050919050565b806000600260008373ffffffffffffffffffffffffffffffffffffffff1673ffffffffffffffffffffffffffffffffffffffff16815260200190815260200160002060020154600260008473ffffffffffffffffffffffffffffffffffffffff1673ffffffffffffffffffffffffffffffffffffffff16815260200190815260200160002060040154611be59190613bcb565b9050804211611bf357600080fd5b6000805b600180549050811015611c8d5760018181548110611c1857611c17613a2e565b5b9060005260206000200160009054906101000a900473ffffffffffffffffffffffffffffffffffffffff1673ffffffffffffffffffffffffffffffffffffffff163373ffffffffffffffffffffffffffffffffffffffff1603611c7a57600191505b8080611c8590613a8c565b915050611bf7565b506001151581151514611c9f57600080fd5b6000600460003373ffffffffffffffffffffffffffffffffffffffff1673ffffffffffffffffffffffffffffffffffffffff1681526020019081526020016000208054905003611cee57600080fd5b6000600260008673ffffffffffffffffffffffffffffffffffffffff1673ffffffffffffffffffffffffffffffffffffffff16815260200190815260200160002060010154600660008773ffffffffffffffffffffffffffffffffffffffff1673ffffffffffffffffffffffffffffffffffffffff16815260200190815260200160002054611d7d9190613c50565b90503373ffffffffffffffffffffffffffffffffffffffff166108fc829081150290604051600060405180830381858888f19350505050158015611dc5573d6000803e3d6000fd5b50611dd08533612528565b5050505050565b60008033905060006001905060005b600080549050811015611e7c578273ffffffffffffffffffffffffffffffffffffffff1660008281548110611e1e57611e1d613a2e565b5b9060005260206000200160009054906101000a900473ffffffffffffffffffffffffffffffffffffffff1673ffffffffffffffffffffffffffffffffffffffff1603611e6957600091505b8080611e7490613a8c565b915050611de6565b5060005b600180549050811015611f16578273ffffffffffffffffffffffffffffffffffffffff1660018281548110611eb857611eb7613a2e565b5b9060005260206000200160009054906101000a900473ffffffffffffffffffffffffffffffffffffffff1673ffffffffffffffffffffffffffffffffffffffff1603611f0357600091505b8080611f0e90613a8c565b915050611e80565b508015611fec576001339080600181540180825580915050600190039060005260206000200160009091909190916101000a81548173ffffffffffffffffffffffffffffffffffffffff021916908373ffffffffffffffffffffffffffffffffffffffff1602179055506000604051806020016040528086815250905080600360003373ffffffffffffffffffffffffffffffffffffffff1673ffffffffffffffffffffffffffffffffffffffff1681526020019081526020016000206000820151816000015590505060019350505050611ff3565b6000925050505b919050565b6007818154811061200857600080fd5b906000526020600020016000915090505481565b6008818154811061202c57600080fd5b906000526020600020016000915090505481565b600c818154811061205057600080fd5b906000526020600020016000915090505481565b600a818154811061207457600080fd5b906000526020600020016000915090505481565b600560205281600052604060002081815481106120a457600080fd5b906000526020600020016000915091509054906101000a900473ffffffffffffffffffffffffffffffffffffffff1681565b565b60026020528060005260406000206000915090508060000154908060010154908060020154908060040154905084565b600260003373ffffffffffffffffffffffffffffffffffffffff1673ffffffffffffffffffffffffffffffffffffffff16815260200190815260200160002060030181908060018154018082558091505060019003906000526020600020016000909190919091509080519060200190612183929190612cca565b5050565b6060600080548060200260200160405190810160405280929190818152602001828054801561220b57602002820191906000526020600020905b8160009054906101000a900473ffffffffffffffffffffffffffffffffffffffff1673ffffffffffffffffffffffffffffffffffffffff16815260200190600101908083116121c1575b5050505050905090565b6000805b6000805490508110156122af576000818154811061223a57612239613a2e565b5b9060005260206000200160009054906101000a900473ffffffffffffffffffffffffffffffffffffffff1673ffffffffffffffffffffffffffffffffffffffff163373ffffffffffffffffffffffffffffffffffffffff160361229c57600191505b80806122a790613a8c565b915050612219565b5060011515811515146122c157600080fd5b343373ffffffffffffffffffffffffffffffffffffffff1631116122e457600080fd5b60006040518060c0016040528088815260200187815260200186815260200185815260200142815260200184815250905080600260003373ffffffffffffffffffffffffffffffffffffffff1673ffffffffffffffffffffffffffffffffffffffff168152602001908152602001600020600082015181600001556020820151816001015560408201518160020155606082015181600301908051906020019061238f929190612d50565b506080820151816004015560a08201518160050190805190602001906123b6929190612db0565b509050506123c26120d6565b34600660003373ffffffffffffffffffffffffffffffffffffffff1673ffffffffffffffffffffffffffffffffffffffff1681526020019081526020016000208190555050505050505050565b6004602052816000526040600020818154811061242b57600080fd5b906000526020600020016000915091509054906101000a900473ffffffffffffffffffffffffffffffffffffffff1681565b606060018054806020026020016040519081016040528092919081815260200182805480156124e157602002820191906000526020600020905b8160009054906101000a900473ffffffffffffffffffffffffffffffffffffffff1673ffffffffffffffffffffffffffffffffffffffff1681526020019060010190808311612497575b5050505050905090565b60606040518060400160405280600c81526020017f48656c6c6f20576f726c64210000000000000000000000000000000000000000815250905090565b6000600560008473ffffffffffffffffffffffffffffffffffffffff1673ffffffffffffffffffffffffffffffffffffffff1681526020019081526020016000208054806020026020016040519081016040528092919081815260200182805480156125e957602002820191906000526020600020905b8160009054906101000a900473ffffffffffffffffffffffffffffffffffffffff1673ffffffffffffffffffffffffffffffffffffffff168152602001906001019080831161259f575b5050505050905060005b81518110156126be578273ffffffffffffffffffffffffffffffffffffffff16600560008673ffffffffffffffffffffffffffffffffffffffff1673ffffffffffffffffffffffffffffffffffffffff168152602001908152602001600020828154811061266457612663613a2e565b5b9060005260206000200160009054906101000a900473ffffffffffffffffffffffffffffffffffffffff1673ffffffffffffffffffffffffffffffffffffffff1603156126be5780806126b690613a8c565b9150506125f3565b60008190505b600183516126d29190613ad4565b81101561280d57600560008673ffffffffffffffffffffffffffffffffffffffff1673ffffffffffffffffffffffffffffffffffffffff1681526020019081526020016000206001826127259190613bcb565b8154811061273657612735613a2e565b5b9060005260206000200160009054906101000a900473ffffffffffffffffffffffffffffffffffffffff16600560008773ffffffffffffffffffffffffffffffffffffffff1673ffffffffffffffffffffffffffffffffffffffff16815260200190815260200160002082815481106127b2576127b1613a2e565b5b9060005260206000200160006101000a81548173ffffffffffffffffffffffffffffffffffffffff021916908373ffffffffffffffffffffffffffffffffffffffff160217905550808061280590613a8c565b9150506126c4565b50600560008573ffffffffffffffffffffffffffffffffffffffff1673ffffffffffffffffffffffffffffffffffffffff1681526020019081526020016000206001600560008773ffffffffffffffffffffffffffffffffffffffff1673ffffffffffffffffffffffffffffffffffffffff1681526020019081526020016000208054905061289c9190613ad4565b815481106128ad576128ac613a2e565b5b9060005260206000200160006101000a81549073ffffffffffffffffffffffffffffffffffffffff02191690556000600460008573ffffffffffffffffffffffffffffffffffffffff1673ffffffffffffffffffffffffffffffffffffffff16815260200190815260200160002080548060200260200160405190810160405280929190818152602001828054801561299b57602002820191906000526020600020905b8160009054906101000a900473ffffffffffffffffffffffffffffffffffffffff1673ffffffffffffffffffffffffffffffffffffffff1681526020019060010190808311612951575b5050505050905060005b8151811015612a70578573ffffffffffffffffffffffffffffffffffffffff16600460008773ffffffffffffffffffffffffffffffffffffffff1673ffffffffffffffffffffffffffffffffffffffff1681526020019081526020016000208281548110612a1657612a15613a2e565b5b9060005260206000200160009054906101000a900473ffffffffffffffffffffffffffffffffffffffff1673ffffffffffffffffffffffffffffffffffffffff160315612a70578080612a6890613a8c565b9150506129a5565b60008190505b60018351612a849190613ad4565b811015612bbf57600460008773ffffffffffffffffffffffffffffffffffffffff1673ffffffffffffffffffffffffffffffffffffffff168152602001908152602001600020600182612ad79190613bcb565b81548110612ae857612ae7613a2e565b5b9060005260206000200160009054906101000a900473ffffffffffffffffffffffffffffffffffffffff16600460008873ffffffffffffffffffffffffffffffffffffffff1673ffffffffffffffffffffffffffffffffffffffff1681526020019081526020016000208281548110612b6457612b63613a2e565b5b9060005260206000200160006101000a81548173ffffffffffffffffffffffffffffffffffffffff021916908373ffffffffffffffffffffffffffffffffffffffff1602179055508080612bb790613a8c565b915050612a76565b50600460008673ffffffffffffffffffffffffffffffffffffffff1673ffffffffffffffffffffffffffffffffffffffff1681526020019081526020016000206001600560008873ffffffffffffffffffffffffffffffffffffffff1673ffffffffffffffffffffffffffffffffffffffff16815260200190815260200160002080549050612c4e9190613ad4565b81548110612c5f57612c5e613a2e565b5b9060005260206000200160006101000a81549073ffffffffffffffffffffffffffffffffffffffff0219169055505050505050565b6040518060c001604052806000815260200160008152602001600081526020016060815260200160008152602001606081525090565b828054612cd690613b37565b90600052602060002090601f016020900481019282612cf85760008555612d3f565b82601f10612d1157805160ff1916838001178555612d3f565b82800160010185558215612d3f579182015b82811115612d3e578251825591602001919060010190612d23565b5b509050612d4c9190612e3a565b5090565b828054828255906000526020600020908101928215612d9f579160200282015b82811115612d9e578251829080519060200190612d8e929190612cca565b5091602001919060010190612d70565b5b509050612dac9190612e57565b5090565b828054828255906000526020600020908101928215612e29579160200282015b82811115612e285782518260006101000a81548173ffffffffffffffffffffffffffffffffffffffff021916908373ffffffffffffffffffffffffffffffffffffffff16021790555091602001919060010190612dd0565b5b509050612e369190612e3a565b5090565b5b80821115612e53576000816000905550600101612e3b565b5090565b5b80821115612e775760008181612e6e9190612e7b565b50600101612e58565b5090565b508054612e8790613b37565b6000825580601f10612e995750612eb8565b601f016020900490600052602060002090810190612eb79190612e3a565b5b50565b6000604051905090565b600080fd5b600080fd5b600073ffffffffffffffffffffffffffffffffffffffff82169050919050565b6000612efa82612ecf565b9050919050565b612f0a81612eef565b8114612f1557600080fd5b50565b600081359050612f2781612f01565b92915050565b600060208284031215612f4357612f42612ec5565b5b6000612f5184828501612f18565b91505092915050565b60008115159050919050565b612f6f81612f5a565b82525050565b6000602082019050612f8a6000830184612f66565b92915050565b6000819050919050565b612fa381612f90565b82525050565b6000602082019050612fbe6000830184612f9a565b92915050565b600081519050919050565b600082825260208201905092915050565b6000819050602082019050919050565b612ff981612f90565b82525050565b600061300b8383612ff0565b60208301905092915050565b6000602082019050919050565b600061302f82612fc4565b6130398185612fcf565b935061304483612fe0565b8060005b8381101561307557815161305c8882612fff565b975061306783613017565b925050600181019050613048565b5085935050505092915050565b600081519050919050565b600082825260208201905092915050565b6000819050602082019050919050565b6130b781612eef565b82525050565b60006130c983836130ae565b60208301905092915050565b6000602082019050919050565b60006130ed82613082565b6130f7818561308d565b93506131028361309e565b8060005b8381101561313357815161311a88826130bd565b9750613125836130d5565b925050600181019050613106565b5085935050505092915050565b600060c082019050818103600083015261315a8189613024565b9050818103602083015261316e8188613024565b905081810360408301526131828187613024565b905081810360608301526131968186613024565b905081810360808301526131aa81856130e2565b905081810360a08301526131be8184613024565b9050979650505050505050565b6131d481612f90565b81146131df57600080fd5b50565b6000813590506131f1816131cb565b92915050565b60006020828403121561320d5761320c612ec5565b5b600061321b848285016131e2565b91505092915050565b61322d81612eef565b82525050565b60006020820190506132486000830184613224565b92915050565b600081519050919050565b600082825260208201905092915050565b6000819050602082019050919050565b600081519050919050565b600082825260208201905092915050565b60005b838110156132b4578082015181840152602081019050613299565b838111156132c3576000848401525b50505050565b6000601f19601f8301169050919050565b60006132e58261327a565b6132ef8185613285565b93506132ff818560208601613296565b613308816132c9565b840191505092915050565b600061331f83836132da565b905092915050565b6000602082019050919050565b600061333f8261324e565b6133498185613259565b93508360208202850161335b8561326a565b8060005b8581101561339757848403895281516133788582613313565b945061338383613327565b925060208a0199505060018101905061335f565b50829750879550505050505092915050565b600082825260208201905092915050565b60006133c582613082565b6133cf81856133a9565b93506133da8361309e565b8060005b8381101561340b5781516133f288826130bd565b97506133fd836130d5565b9250506001810190506133de565b5085935050505092915050565b600060c0830160008301516134306000860182612ff0565b5060208301516134436020860182612ff0565b5060408301516134566040860182612ff0565b506060830151848203606086015261346e8282613334565b91505060808301516134836080860182612ff0565b5060a083015184820360a086015261349b82826133ba565b9150508091505092915050565b600060208201905081810360008301526134c28184613418565b905092915050565b600081519050919050565b600082825260208201905092915050565b60006134f1826134ca565b6134fb81856134d5565b935061350b818560208601613296565b613514816132c9565b840191505092915050565b6000602082019050818103600083015261353981846134e6565b905092915050565b6000806040838503121561355857613557612ec5565b5b600061356685828601612f18565b9250506020613577858286016131e2565b9150509250929050565b60006080820190506135966000830187612f9a565b6135a36020830186612f9a565b6135b06040830185612f9a565b6135bd6060830184612f9a565b95945050505050565b600080fd5b600080fd5b7f4e487b7100000000000000000000000000000000000000000000000000000000600052604160045260246000fd5b613608826132c9565b810181811067ffffffffffffffff82111715613627576136266135d0565b5b80604052505050565b600061363a612ebb565b905061364682826135ff565b919050565b600067ffffffffffffffff821115613666576136656135d0565b5b61366f826132c9565b9050602081019050919050565b82818337600083830152505050565b600061369e6136998461364b565b613630565b9050828152602081018484840111156136ba576136b96135cb565b5b6136c584828561367c565b509392505050565b600082601f8301126136e2576136e16135c6565b5b81356136f284826020860161368b565b91505092915050565b60006020828403121561371157613710612ec5565b5b600082013567ffffffffffffffff81111561372f5761372e612eca565b5b61373b848285016136cd565b91505092915050565b6000602082019050818103600083015261375e81846130e2565b905092915050565b600067ffffffffffffffff821115613781576137806135d0565b5b602082029050602081019050919050565b600080fd5b60006137aa6137a584613766565b613630565b905080838252602082019050602084028301858111156137cd576137cc613792565b5b835b8181101561381457803567ffffffffffffffff8111156137f2576137f16135c6565b5b8086016137ff89826136cd565b855260208501945050506020810190506137cf565b5050509392505050565b600082601f830112613833576138326135c6565b5b8135613843848260208601613797565b91505092915050565b600067ffffffffffffffff821115613867576138666135d0565b5b602082029050602081019050919050565b600061388b6138868461384c565b613630565b905080838252602082019050602084028301858111156138ae576138ad613792565b5b835b818110156138d757806138c38882612f18565b8452602084019350506020810190506138b0565b5050509392505050565b600082601f8301126138f6576138f56135c6565b5b8135613906848260208601613878565b91505092915050565b600080600080600060a0868803121561392b5761392a612ec5565b5b6000613939888289016131e2565b955050602061394a888289016131e2565b945050604061395b888289016131e2565b935050606086013567ffffffffffffffff81111561397c5761397b612eca565b5b6139888882890161381e565b925050608086013567ffffffffffffffff8111156139a9576139a8612eca565b5b6139b5888289016138e1565b9150509295509295909350565b600082825260208201905092915050565b60006139de8261327a565b6139e881856139c2565b93506139f8818560208601613296565b613a01816132c9565b840191505092915050565b60006020820190508181036000830152613a2681846139d3565b905092915050565b7f4e487b7100000000000000000000000000000000000000000000000000000000600052603260045260246000fd5b7f4e487b7100000000000000000000000000000000000000000000000000000000600052601160045260246000fd5b6000613a9782612f90565b91507fffffffffffffffffffffffffffffffffffffffffffffffffffffffffffffffff8203613ac957613ac8613a5d565b5b600182019050919050565b6000613adf82612f90565b9150613aea83612f90565b925082821015613afd57613afc613a5d565b5b828203905092915050565b7f4e487b7100000000000000000000000000000000000000000000000000000000600052602260045260246000fd5b60006002820490506001821680613b4f57607f821691505b602082108103613b6257613b61613b08565b5b50919050565b60008160601b9050919050565b6000613b8082613b68565b9050919050565b6000613b9282613b75565b9050919050565b613baa613ba582612eef565b613b87565b82525050565b6000613bbc8284613b99565b60148201915081905092915050565b6000613bd682612f90565b9150613be183612f90565b9250827fffffffffffffffffffffffffffffffffffffffffffffffffffffffffffffffff03821115613c1657613c15613a5d565b5b828201905092915050565b7f4e487b7100000000000000000000000000000000000000000000000000000000600052601260045260246000fd5b6000613c5b82612f90565b9150613c6683612f90565b925082613c7657613c75613c21565b5b82820490509291505056fea2646970667358221220857a2cf1f719e8c9231b44876825f0b8857f0c1850409996e7e2ee63c9aa6d5364736f6c634300080d0033",
  "immutableReferences": {},
  "source": "// SPDX-License-Identifier: MIT\n\npragma solidity >= 0.5.0 < 0.9.0;\n\nstruct Request {\n    uint space;\n    uint duplications;\n    uint duration;\n    string[] cids;\n    uint startTime;\n    address[] providersList;\n}\n\nstruct Provide {\n    uint space;\n}\n\n// duration \n// access data \n\ncontract DiskSpaceRenter {\n\n    modifier afterCompletion(address r) {\n        uint deadline = requesterList[r].startTime + requesterList[r].duration;\n        require(block.timestamp > deadline);\n        _;\n    }\n\n\n    address[] public requesters;\n    address[] public providers;\n    mapping (address => Request) public requesterList;\n    mapping (address => Provide) public providerList;\n\n    // one provider can have multiple requesters\n    mapping (address => address[]) public providerToRequester;\n\n    // one requester can have multiple providers\n    mapping (address => address[]) public requesterToProvider;\n\n    //address to amount paid  by requester and deposited to the contract account and not released to the provider account yet\n    mapping (address => uint) public requesterFunds;\n    \n    modifier onlyRequester {\n        bool flag = false;\n        for(uint i=0; i<requesters.length; i++) {\n            if(msg.sender == requesters[i]) flag = true;\n        }\n        require(flag == true);\n        _;\n    }\n\n    function toBytes(address a) public pure returns (bytes memory) {\n        return abi.encodePacked(a);\n    }\n\n    function sayHello() public pure returns (string memory) {\n        return 'Hello World!';\n    }\n\n    modifier onlyProvider {\n        bool flag = false;\n        for(uint i=0; i<providers.length; i++) {\n            if(msg.sender == providers[i]) flag = true;\n        }\n        require(flag == true);\n        _;\n    }\n\n\n    function addRequester() public returns( bool added){\n        address requester = msg.sender;\n        bool flag = true;\n        for(uint i=0; i<requesters.length; i++) {\n            if(requesters[i] == requester) flag = false;\n        }\n        for(uint i=0; i<providers.length; i++) {\n            if(providers[i] == requester) flag = false;\n        }\n        if(flag){ requesters.push(msg.sender);\n        return true;}\n        return false;\n    }\n\n    function addProvider(uint _spaceInMB) public returns( bool added){\n        address pro = msg.sender;\n        bool flag = true;\n        for(uint i=0; i<requesters.length; i++) {\n            if(requesters[i] == pro) flag = false;\n        }\n        for(uint i=0; i<providers.length; i++) {\n            if(providers[i] == pro) flag = false;\n        }\n        if(flag) {\n            providers.push(msg.sender);\n\n            Provide memory p = Provide(_spaceInMB);\n            providerList[msg.sender] = p;\n            return true;\n        }\n        return false;\n    }\n    function getRequesters()public view returns( address[] memory){\n        return requesters;\n    }\n\n    function getProviders()public view returns(address[] memory){\n        return providers;\n    }\n\n    function getCurrentUser()public view returns( address  user){\n        return msg.sender;\n    }\n\n    function currentUserTransaction()public view returns(Request memory r){\n        return requesterList[msg.sender];\n    }\n\n    function getUserTransaction(address sender)public view returns(Request memory r){\n        return requesterList[sender];\n    }\n\n    function getProviderSpace(address sender)public view returns(uint){\n        return providerList[sender].space;\n    }\n\n    function addCIDToTransaction(string memory cid) public{\n        requesterList[msg.sender].cids.push(cid);\n    }\n\n    function getTransactionOfProvider() public view returns(address requester){\n        address caller = msg.sender;\n        if(providerToRequester[caller].length>0)return providerToRequester[caller][0];\n        else return caller;\n    }\n    \n    // front end should give array of cids as argument to this func\n    function requestSpace(uint _spaceInMB, uint _duplications, uint _duration, string[] memory _cids, address[] memory gettingProvider) public payable onlyRequester {\n        // duration in seconds\n        // price is a function of requesters space, duration and duplications\n        // uint price = 2000000000000000000;\n        // msg.value = price;\n        require(msg.sender.balance > msg.value);\n        \n        Request memory r = Request(_spaceInMB, _duplications, _duration, _cids, block.timestamp, gettingProvider);\n        requesterList[msg.sender] = r;\n        payRent();\n\n        // keeping track of amount deposited to contract account by each requester\n        requesterFunds[msg.sender] = msg.value;\n\n        // withdraw money from requesters account\n        // put it into contarcts account\n        // release into provider after durtion is complete\n\n        // transfer is from contract to any other payable address\n        // payable(address(this)).transfer(msg.value);       \n    }\n\n    function payRent() payable public {\n        //learn how to hide this function\n    }\n\n    function approveRequest (address requester) public onlyProvider returns (bool ) {\n        address caller = msg.sender;\n        bool added = false;\n        if(providerList[caller].space != 0) {\n            if(requesterList[requester].space <= providerList[caller].space) {\n                if(requesterToProvider[requester].length < requesterList[requester].duplications) {\n                    providerToRequester[caller].push(requester);\n                    requesterToProvider[requester].push(caller);\n\n                    providerList[caller].space -= requesterList[requester].space;\n\n                    requesterList[requester].startTime = block.timestamp;\n                    requesterList[requester].providersList.push(caller);\n                    added = true;\n                }\n\n                else {\n                    // already y providers exist\n                }\n            }\n            else {\n                // space insufficient\n            }\n        }\n        else {\n            // not a provider\n        }\n        return added;\n    }\n\n    // releasePayment() is called by provider. it checks the duration and transfers the funds\n    // argument is requesters address\n    function releasePayment (address r) public afterCompletion(r) onlyProvider {\n        require(providerToRequester[msg.sender].length != 0);\n        uint amount = requesterFunds[r]/requesterList[r].duplications;\n        payable(msg.sender).transfer(amount);\n        updateMappings(r, msg.sender);\n    }\n\n    function updateMappings(address r, address p) private {\n        // in requester, remove provider\n        address[] memory providerArray = requesterToProvider[r];\n        \n        uint index;\n        for(index=0; index<providerArray.length; index++) {\n            if(requesterToProvider[r][index] == p) {\n                break;\n            }\n        }\n        for(uint j = index; j < providerArray.length-1; j++) {\n            requesterToProvider[r][j] = requesterToProvider[r][j+1];\n        }\n        delete requesterToProvider[r][requesterToProvider[r].length-1];\n\n\n        // in provider remove requester\n        address[] memory requesterArray = providerToRequester[p];\n        \n        uint ind;\n        for(ind=0; ind<requesterArray.length; ind++) {\n            if(providerToRequester[p][ind] == r) {\n                break;\n            }\n        }\n        for(uint j = ind; j <requesterArray.length-1; j++) {\n            providerToRequester[p][j] = providerToRequester[p][j+1];\n        }\n        delete providerToRequester[p][requesterToProvider[p].length-1];\n    }\n    uint[] public space;\n    uint[] public duplicationss;\n    uint[] public duration;\n    uint[] public sstartTime;\n    address[] public requestersOfTransactions;\n    uint[] public indexes;\n    function getAllTransactions() public returns(uint[] memory,uint[] memory , uint[] memory, uint[] memory, address[] memory, uint[] memory) {\n        for(uint i = 0;i<requesters.length;i++){\n            if(requesterList[requesters[i]].startTime!=0){\n                requestersOfTransactions.push(requesters[i]);\n                space.push(requesterList[requesters[i]].space);\n                duplicationss.push(requesterList[requesters[i]].duplications);\n                sstartTime.push(requesterList[requesters[i]].startTime);\n                duration.push(requesterList[requesters[i]].duration);\n                indexes.push(i);\n            }\n        }\n        return (space,duplicationss,duration,sstartTime,requestersOfTransactions,indexes);\n    }\n}\n",
  "sourcePath": "/home/ikjot-2605/disk_space_renting_system_cli/contracts/DiskSpaceRenter.sol",
  "compiler": {
    "name": "solc",
    "version": "0.8.13+commit.abaa5c0e.Emscripten.clang"
  },
  "schemaVersion": "3.4.6",
  "updatedAt": "2022-04-07T20:59:50.699Z",
  "networkType": "ethereum",
  "devdoc": {
    "kind": "dev",
    "methods": {},
    "version": 1
  },
  "userdoc": {
    "kind": "user",
    "methods": {},
    "version": 1
  }
}