{
  "contractName": "DiskSpaceRenter",
  "abi": [
    {
      "inputs": [
        {
          "internalType": "uint256",
          "name": "",
          "type": "uint256"
        }
      ],
      "name": "duplicationss",
      "outputs": [
        {
          "internalType": "uint256",
          "name": "",
          "type": "uint256"
        }
      ],
      "stateMutability": "view",
      "type": "function",
      "constant": true
    },
    {
      "inputs": [
        {
          "internalType": "uint256",
          "name": "",
          "type": "uint256"
        }
      ],
      "name": "duration",
      "outputs": [
        {
          "internalType": "uint256",
          "name": "",
          "type": "uint256"
        }
      ],
      "stateMutability": "view",
      "type": "function",
      "constant": true
    },
    {
      "inputs": [
        {
          "internalType": "uint256",
          "name": "",
          "type": "uint256"
        }
      ],
      "name": "indexes",
      "outputs": [
        {
          "internalType": "uint256",
          "name": "",
          "type": "uint256"
        }
      ],
      "stateMutability": "view",
      "type": "function",
      "constant": true
    },
    {
      "inputs": [
        {
          "internalType": "address",
          "name": "",
          "type": "address"
        }
      ],
      "name": "providerList",
      "outputs": [
        {
          "internalType": "uint256",
          "name": "space",
          "type": "uint256"
        }
      ],
      "stateMutability": "view",
      "type": "function",
      "constant": true
    },
    {
      "inputs": [
        {
          "internalType": "address",
          "name": "",
          "type": "address"
        },
        {
          "internalType": "uint256",
          "name": "",
          "type": "uint256"
        }
      ],
      "name": "providerToRequester",
      "outputs": [
        {
          "internalType": "address",
          "name": "",
          "type": "address"
        }
      ],
      "stateMutability": "view",
      "type": "function",
      "constant": true
    },
    {
      "inputs": [
        {
          "internalType": "uint256",
          "name": "",
          "type": "uint256"
        }
      ],
      "name": "providers",
      "outputs": [
        {
          "internalType": "address",
          "name": "",
          "type": "address"
        }
      ],
      "stateMutability": "view",
      "type": "function",
      "constant": true
    },
    {
      "inputs": [
        {
          "internalType": "address",
          "name": "",
          "type": "address"
        }
      ],
      "name": "requesterFunds",
      "outputs": [
        {
          "internalType": "uint256",
          "name": "",
          "type": "uint256"
        }
      ],
      "stateMutability": "view",
      "type": "function",
      "constant": true
    },
    {
      "inputs": [
        {
          "internalType": "address",
          "name": "",
          "type": "address"
        }
      ],
      "name": "requesterList",
      "outputs": [
        {
          "internalType": "uint256",
          "name": "space",
          "type": "uint256"
        },
        {
          "internalType": "uint256",
          "name": "duplications",
          "type": "uint256"
        },
        {
          "internalType": "uint256",
          "name": "duration",
          "type": "uint256"
        },
        {
          "internalType": "uint256",
          "name": "startTime",
          "type": "uint256"
        }
      ],
      "stateMutability": "view",
      "type": "function",
      "constant": true
    },
    {
      "inputs": [
        {
          "internalType": "address",
          "name": "",
          "type": "address"
        },
        {
          "internalType": "uint256",
          "name": "",
          "type": "uint256"
        }
      ],
      "name": "requesterToProvider",
      "outputs": [
        {
          "internalType": "address",
          "name": "",
          "type": "address"
        }
      ],
      "stateMutability": "view",
      "type": "function",
      "constant": true
    },
    {
      "inputs": [
        {
          "internalType": "uint256",
          "name": "",
          "type": "uint256"
        }
      ],
      "name": "requesters",
      "outputs": [
        {
          "internalType": "address",
          "name": "",
          "type": "address"
        }
      ],
      "stateMutability": "view",
      "type": "function",
      "constant": true
    },
    {
      "inputs": [
        {
          "internalType": "uint256",
          "name": "",
          "type": "uint256"
        }
      ],
      "name": "requestersOfTransactions",
      "outputs": [
        {
          "internalType": "address",
          "name": "",
          "type": "address"
        }
      ],
      "stateMutability": "view",
      "type": "function",
      "constant": true
    },
    {
      "inputs": [
        {
          "internalType": "uint256",
          "name": "",
          "type": "uint256"
        }
      ],
      "name": "space",
      "outputs": [
        {
          "internalType": "uint256",
          "name": "",
          "type": "uint256"
        }
      ],
      "stateMutability": "view",
      "type": "function",
      "constant": true
    },
    {
      "inputs": [
        {
          "internalType": "uint256",
          "name": "",
          "type": "uint256"
        }
      ],
      "name": "sstartTime",
      "outputs": [
        {
          "internalType": "uint256",
          "name": "",
          "type": "uint256"
        }
      ],
      "stateMutability": "view",
      "type": "function",
      "constant": true
    },
    {
      "inputs": [
        {
          "internalType": "address",
          "name": "a",
          "type": "address"
        }
      ],
      "name": "toBytes",
      "outputs": [
        {
          "internalType": "bytes",
          "name": "",
          "type": "bytes"
        }
      ],
      "stateMutability": "pure",
      "type": "function",
      "constant": true
    },
    {
      "inputs": [],
      "name": "sayHello",
      "outputs": [
        {
          "internalType": "string",
          "name": "",
          "type": "string"
        }
      ],
      "stateMutability": "pure",
      "type": "function",
      "constant": true
    },
    {
      "inputs": [],
      "name": "addRequester",
      "outputs": [
        {
          "internalType": "bool",
          "name": "added",
          "type": "bool"
        }
      ],
      "stateMutability": "nonpayable",
      "type": "function"
    },
    {
      "inputs": [
        {
          "internalType": "uint256",
          "name": "_spaceInMB",
          "type": "uint256"
        }
      ],
      "name": "addProvider",
      "outputs": [
        {
          "internalType": "bool",
          "name": "added",
          "type": "bool"
        }
      ],
      "stateMutability": "nonpayable",
      "type": "function"
    },
    {
      "inputs": [],
      "name": "getRequesters",
      "outputs": [
        {
          "internalType": "address[]",
          "name": "",
          "type": "address[]"
        }
      ],
      "stateMutability": "view",
      "type": "function",
      "constant": true
    },
    {
      "inputs": [],
      "name": "getProviders",
      "outputs": [
        {
          "internalType": "address[]",
          "name": "",
          "type": "address[]"
        }
      ],
      "stateMutability": "view",
      "type": "function",
      "constant": true
    },
    {
      "inputs": [],
      "name": "getCurrentUser",
      "outputs": [
        {
          "internalType": "address",
          "name": "user",
          "type": "address"
        }
      ],
      "stateMutability": "view",
      "type": "function",
      "constant": true
    },
    {
      "inputs": [],
      "name": "currentUserTransaction",
      "outputs": [
        {
          "components": [
            {
              "internalType": "uint256",
              "name": "space",
              "type": "uint256"
            },
            {
              "internalType": "uint256",
              "name": "duplications",
              "type": "uint256"
            },
            {
              "internalType": "uint256",
              "name": "duration",
              "type": "uint256"
            },
            {
              "internalType": "string[]",
              "name": "cids",
              "type": "string[]"
            },
            {
              "internalType": "uint256",
              "name": "startTime",
              "type": "uint256"
            },
            {
              "internalType": "address[]",
              "name": "providersList",
              "type": "address[]"
            }
          ],
          "internalType": "struct Request",
          "name": "r",
          "type": "tuple"
        }
      ],
      "stateMutability": "view",
      "type": "function",
      "constant": true
    },
    {
      "inputs": [
        {
          "internalType": "string",
          "name": "cid",
          "type": "string"
        }
      ],
      "name": "addCIDToTransaction",
      "outputs": [],
      "stateMutability": "nonpayable",
      "type": "function"
    },
    {
      "inputs": [
        {
          "internalType": "uint256",
          "name": "_spaceInMB",
          "type": "uint256"
        },
        {
          "internalType": "uint256",
          "name": "_duplications",
          "type": "uint256"
        },
        {
          "internalType": "uint256",
          "name": "_duration",
          "type": "uint256"
        },
        {
          "internalType": "string[]",
          "name": "_cids",
          "type": "string[]"
        },
        {
          "internalType": "uint256",
          "name": "startTime",
          "type": "uint256"
        },
        {
          "internalType": "address[]",
          "name": "gettingProvider",
          "type": "address[]"
        }
      ],
      "name": "requestSpace",
      "outputs": [],
      "stateMutability": "payable",
      "type": "function",
      "payable": true
    },
    {
      "inputs": [],
      "name": "payRent",
      "outputs": [],
      "stateMutability": "payable",
      "type": "function",
      "payable": true
    },
    {
      "inputs": [
        {
          "internalType": "uint256",
          "name": "requester_index",
          "type": "uint256"
        }
      ],
      "name": "approveRequest",
      "outputs": [],
      "stateMutability": "nonpayable",
      "type": "function"
    },
    {
      "inputs": [
        {
          "internalType": "address",
          "name": "r",
          "type": "address"
        }
      ],
      "name": "releasePayment",
      "outputs": [],
      "stateMutability": "nonpayable",
      "type": "function"
    },
    {
      "inputs": [],
      "name": "getAllTransactions",
      "outputs": [
        {
          "internalType": "uint256[]",
          "name": "",
          "type": "uint256[]"
        },
        {
          "internalType": "uint256[]",
          "name": "",
          "type": "uint256[]"
        },
        {
          "internalType": "uint256[]",
          "name": "",
          "type": "uint256[]"
        },
        {
          "internalType": "uint256[]",
          "name": "",
          "type": "uint256[]"
        },
        {
          "internalType": "address[]",
          "name": "",
          "type": "address[]"
        },
        {
          "internalType": "uint256[]",
          "name": "",
          "type": "uint256[]"
        }
      ],
      "stateMutability": "nonpayable",
      "type": "function"
    }
  ],
  "bytecode": "0x608060405234801561001057600080fd5b50613901806100206000396000f3fe60806040526004361061019c5760003560e01c80638031e8fd116100ec578063c253c7bc1161008a578063d7d1bbdb11610064578063d7d1bbdb1461064e578063e0e21cad14610677578063edc922a9146106b4578063ef5fb05b146106df5761019c565b8063c253c7bc146105ba578063c61074cc146105fa578063cb0830a3146106235761019c565b806392f8eb94116100c657806392f8eb94146104f957806397c2f1b014610536578063a1b8ec7914610573578063a709c4fe146105b05761019c565b80638031e8fd14610442578063876ff1921461047f5780638c2fbb80146104bc5761019c565b806348f2bfe31161015957806355c69f9a1161013357806355c69f9a14610374578063593b79fe1461039f5780635e1a6c17146103dc57806377e2f10b146104195761019c565b806348f2bfe3146102de57806350f3fc81146102fa5780635122495a146103375761019c565b80630e1e4a3c146101a157806327506f53146101de5780632c666ecc1461020e5780632f1e05641461024b57806335bc54621461027657806343ae37c3146102b3575b600080fd5b3480156101ad57600080fd5b506101c860048036038101906101c39190612b65565b61070a565b6040516101d59190612bab565b60405180910390f35b3480156101ea57600080fd5b506101f3610728565b60405161020596959493929190612d42565b60405180910390f35b34801561021a57600080fd5b5061023560048036038101906102309190612df9565b610d89565b6040516102429190612e35565b60405180910390f35b34801561025757600080fd5b50610260610dc8565b60405161026d91906130aa565b60405180910390f35b34801561028257600080fd5b5061029d60048036038101906102989190612df9565b610fae565b6040516102aa9190612bab565b60405180910390f35b3480156102bf57600080fd5b506102c8610fd2565b6040516102d59190612e35565b60405180910390f35b6102f860048036038101906102f391906133aa565b610fda565b005b34801561030657600080fd5b50610321600480360381019061031c9190612df9565b6111d5565b60405161032e9190612e35565b60405180910390f35b34801561034357600080fd5b5061035e60048036038101906103599190612b65565b611214565b60405161036b9190612bab565b60405180910390f35b34801561038057600080fd5b5061038961122c565b604051610396919061348a565b60405180910390f35b3480156103ab57600080fd5b506103c660048036038101906103c19190612b65565b6113ea565b6040516103d391906134fa565b60405180910390f35b3480156103e857600080fd5b5061040360048036038101906103fe9190612df9565b611413565b6040516104109190612e35565b60405180910390f35b34801561042557600080fd5b50610440600480360381019061043b9190612b65565b611452565b005b34801561044e57600080fd5b5061046960048036038101906104649190612df9565b6116d7565b604051610476919061348a565b60405180910390f35b34801561048b57600080fd5b506104a660048036038101906104a19190612df9565b6118f8565b6040516104b39190612bab565b60405180910390f35b3480156104c857600080fd5b506104e360048036038101906104de9190612df9565b61191c565b6040516104f09190612bab565b60405180910390f35b34801561050557600080fd5b50610520600480360381019061051b9190612df9565b611940565b60405161052d9190612bab565b60405180910390f35b34801561054257600080fd5b5061055d60048036038101906105589190612df9565b611964565b60405161056a9190612bab565b60405180910390f35b34801561057f57600080fd5b5061059a6004803603810190610595919061351c565b611988565b6040516105a79190612e35565b60405180910390f35b6105b86119d6565b005b3480156105c657600080fd5b506105e160048036038101906105dc9190612b65565b6119d8565b6040516105f1949392919061355c565b60405180910390f35b34801561060657600080fd5b50610621600480360381019061061c91906135a1565b611a08565b005b34801561062f57600080fd5b50610638611a87565b60405161064591906135ea565b60405180910390f35b34801561065a57600080fd5b5061067560048036038101906106709190612df9565b611b15565b005b34801561068357600080fd5b5061069e6004803603810190610699919061351c565b612047565b6040516106ab9190612e35565b60405180910390f35b3480156106c057600080fd5b506106c9612095565b6040516106d691906135ea565b60405180910390f35b3480156106eb57600080fd5b506106f4612123565b6040516107019190613656565b60405180910390f35b60036020528060005260406000206000915090508060000154905081565b60608060608060608060005b600080549050811015610b465760006002600080848154811061075a57610759613678565b5b9060005260206000200160009054906101000a900473ffffffffffffffffffffffffffffffffffffffff1673ffffffffffffffffffffffffffffffffffffffff1673ffffffffffffffffffffffffffffffffffffffff1681526020019081526020016000206004015414610b3357600b600082815481106107de576107dd613678565b5b9060005260206000200160009054906101000a900473ffffffffffffffffffffffffffffffffffffffff169080600181540180825580915050600190039060005260206000200160009091909190916101000a81548173ffffffffffffffffffffffffffffffffffffffff021916908373ffffffffffffffffffffffffffffffffffffffff16021790555060076002600080848154811061088257610881613678565b5b9060005260206000200160009054906101000a900473ffffffffffffffffffffffffffffffffffffffff1673ffffffffffffffffffffffffffffffffffffffff1673ffffffffffffffffffffffffffffffffffffffff16815260200190815260200160002060000154908060018154018082558091505060019003906000526020600020016000909190919091505560086002600080848154811061092a57610929613678565b5b9060005260206000200160009054906101000a900473ffffffffffffffffffffffffffffffffffffffff1673ffffffffffffffffffffffffffffffffffffffff1673ffffffffffffffffffffffffffffffffffffffff168152602001908152602001600020600101549080600181540180825580915050600190039060005260206000200160009091909190915055600a600260008084815481106109d2576109d1613678565b5b9060005260206000200160009054906101000a900473ffffffffffffffffffffffffffffffffffffffff1673ffffffffffffffffffffffffffffffffffffffff1673ffffffffffffffffffffffffffffffffffffffff168152602001908152602001600020600401549080600181540180825580915050600190039060005260206000200160009091909190915055600960026000808481548110610a7a57610a79613678565b5b9060005260206000200160009054906101000a900473ffffffffffffffffffffffffffffffffffffffff1673ffffffffffffffffffffffffffffffffffffffff1673ffffffffffffffffffffffffffffffffffffffff168152602001908152602001600020600201549080600181540180825580915050600190039060005260206000200160009091909190915055600c8190806001815401808255809150506001900390600052602060002001600090919091909150555b8080610b3e906136d6565b915050610734565b50600760086009600a600b600c85805480602002602001604051908101604052809291908181526020018280548015610b9e57602002820191906000526020600020905b815481526020019060010190808311610b8a575b5050505050955084805480602002602001604051908101604052809291908181526020018280548015610bf057602002820191906000526020600020905b815481526020019060010190808311610bdc575b5050505050945083805480602002602001604051908101604052809291908181526020018280548015610c4257602002820191906000526020600020905b815481526020019060010190808311610c2e575b5050505050935082805480602002602001604051908101604052809291908181526020018280548015610c9457602002820191906000526020600020905b815481526020019060010190808311610c80575b5050505050925081805480602002602001604051908101604052809291908181526020018280548015610d1c57602002820191906000526020600020905b8160009054906101000a900473ffffffffffffffffffffffffffffffffffffffff1673ffffffffffffffffffffffffffffffffffffffff1681526020019060010190808311610cd2575b5050505050915080805480602002602001604051908101604052809291908181526020018280548015610d6e57602002820191906000526020600020905b815481526020019060010190808311610d5a575b50505050509050955095509550955095509550909192939495565b600b8181548110610d9957600080fd5b906000526020600020016000915054906101000a900473ffffffffffffffffffffffffffffffffffffffff1681565b610dd06128cc565b600260003373ffffffffffffffffffffffffffffffffffffffff1673ffffffffffffffffffffffffffffffffffffffff1681526020019081526020016000206040518060c001604052908160008201548152602001600182015481526020016002820154815260200160038201805480602002602001604051908101604052809291908181526020016000905b82821015610f09578382906000526020600020018054610e7c9061374d565b80601f0160208091040260200160405190810160405280929190818152602001828054610ea89061374d565b8015610ef55780601f10610eca57610100808354040283529160200191610ef5565b820191906000526020600020905b815481529060010190602001808311610ed857829003601f168201915b505050505081526020019060010190610e5d565b5050505081526020016004820154815260200160058201805480602002602001604051908101604052809291908181526020018280548015610fa057602002820191906000526020600020905b8160009054906101000a900473ffffffffffffffffffffffffffffffffffffffff1673ffffffffffffffffffffffffffffffffffffffff1681526020019060010190808311610f56575b505050505081525050905090565b60098181548110610fbe57600080fd5b906000526020600020016000915090505481565b600033905090565b6000805b6000805490508110156110745760008181548110610fff57610ffe613678565b5b9060005260206000200160009054906101000a900473ffffffffffffffffffffffffffffffffffffffff1673ffffffffffffffffffffffffffffffffffffffff163373ffffffffffffffffffffffffffffffffffffffff160361106157600191505b808061106c906136d6565b915050610fde565b50600115158115151461108657600080fd5b343373ffffffffffffffffffffffffffffffffffffffff1631116110a957600080fd5b60006040518060c0016040528089815260200188815260200187815260200186815260200185815260200184815250905080600260003373ffffffffffffffffffffffffffffffffffffffff1673ffffffffffffffffffffffffffffffffffffffff1681526020019081526020016000206000820151816000015560208201518160010155604082015181600201556060820151816003019080519060200190611154929190612902565b506080820151816004015560a082015181600501908051906020019061117b929190612962565b509050506111876119d6565b34600660003373ffffffffffffffffffffffffffffffffffffffff1673ffffffffffffffffffffffffffffffffffffffff168152602001908152602001600020819055505050505050505050565b600181815481106111e557600080fd5b906000526020600020016000915054906101000a900473ffffffffffffffffffffffffffffffffffffffff1681565b60066020528060005260406000206000915090505481565b60008033905060006001905060005b6000805490508110156112d1578273ffffffffffffffffffffffffffffffffffffffff166000828154811061127357611272613678565b5b9060005260206000200160009054906101000a900473ffffffffffffffffffffffffffffffffffffffff1673ffffffffffffffffffffffffffffffffffffffff16036112be57600091505b80806112c9906136d6565b91505061123b565b5060005b60018054905081101561136b578273ffffffffffffffffffffffffffffffffffffffff166001828154811061130d5761130c613678565b5b9060005260206000200160009054906101000a900473ffffffffffffffffffffffffffffffffffffffff1673ffffffffffffffffffffffffffffffffffffffff160361135857600091505b8080611363906136d6565b9150506112d5565b5080156113e0576000339080600181540180825580915050600190039060005260206000200160009091909190916101000a81548173ffffffffffffffffffffffffffffffffffffffff021916908373ffffffffffffffffffffffffffffffffffffffff1602179055506001925050506113e7565b6000925050505b90565b6060816040516020016113fd91906137c6565b6040516020818303038152906040529050919050565b6000818154811061142357600080fd5b906000526020600020016000915054906101000a900473ffffffffffffffffffffffffffffffffffffffff1681565b806000600260008373ffffffffffffffffffffffffffffffffffffffff1673ffffffffffffffffffffffffffffffffffffffff16815260200190815260200160002060020154600260008473ffffffffffffffffffffffffffffffffffffffff1673ffffffffffffffffffffffffffffffffffffffff168152602001908152602001600020600401546114e591906137e1565b90508042116114f357600080fd5b6000805b60018054905081101561158d576001818154811061151857611517613678565b5b9060005260206000200160009054906101000a900473ffffffffffffffffffffffffffffffffffffffff1673ffffffffffffffffffffffffffffffffffffffff163373ffffffffffffffffffffffffffffffffffffffff160361157a57600191505b8080611585906136d6565b9150506114f7565b50600115158115151461159f57600080fd5b6000600460003373ffffffffffffffffffffffffffffffffffffffff1673ffffffffffffffffffffffffffffffffffffffff16815260200190815260200160002080549050036115ee57600080fd5b6000600260008673ffffffffffffffffffffffffffffffffffffffff1673ffffffffffffffffffffffffffffffffffffffff16815260200190815260200160002060010154600660008773ffffffffffffffffffffffffffffffffffffffff1673ffffffffffffffffffffffffffffffffffffffff1681526020019081526020016000205461167d9190613866565b90503373ffffffffffffffffffffffffffffffffffffffff166108fc829081150290604051600060405180830381858888f193505050501580156116c5573d6000803e3d6000fd5b506116d08533612160565b5050505050565b60008033905060006001905060005b60008054905081101561177c578273ffffffffffffffffffffffffffffffffffffffff166000828154811061171e5761171d613678565b5b9060005260206000200160009054906101000a900473ffffffffffffffffffffffffffffffffffffffff1673ffffffffffffffffffffffffffffffffffffffff160361176957600091505b8080611774906136d6565b9150506116e6565b5060005b600180549050811015611816578273ffffffffffffffffffffffffffffffffffffffff16600182815481106117b8576117b7613678565b5b9060005260206000200160009054906101000a900473ffffffffffffffffffffffffffffffffffffffff1673ffffffffffffffffffffffffffffffffffffffff160361180357600091505b808061180e906136d6565b915050611780565b5080156118ec576001339080600181540180825580915050600190039060005260206000200160009091909190916101000a81548173ffffffffffffffffffffffffffffffffffffffff021916908373ffffffffffffffffffffffffffffffffffffffff1602179055506000604051806020016040528086815250905080600360003373ffffffffffffffffffffffffffffffffffffffff1673ffffffffffffffffffffffffffffffffffffffff16815260200190815260200160002060008201518160000155905050600193505050506118f3565b6000925050505b919050565b6007818154811061190857600080fd5b906000526020600020016000915090505481565b6008818154811061192c57600080fd5b906000526020600020016000915090505481565b600c818154811061195057600080fd5b906000526020600020016000915090505481565b600a818154811061197457600080fd5b906000526020600020016000915090505481565b600560205281600052604060002081815481106119a457600080fd5b906000526020600020016000915091509054906101000a900473ffffffffffffffffffffffffffffffffffffffff1681565b565b60026020528060005260406000206000915090508060000154908060010154908060020154908060040154905084565b600260003373ffffffffffffffffffffffffffffffffffffffff1673ffffffffffffffffffffffffffffffffffffffff16815260200190815260200160002060030181908060018154018082558091505060019003906000526020600020016000909190919091509080519060200190611a839291906129ec565b5050565b60606000805480602002602001604051908101604052809291908181526020018280548015611b0b57602002820191906000526020600020905b8160009054906101000a900473ffffffffffffffffffffffffffffffffffffffff1673ffffffffffffffffffffffffffffffffffffffff1681526020019060010190808311611ac1575b5050505050905090565b6000805b600180549050811015611baf5760018181548110611b3a57611b39613678565b5b9060005260206000200160009054906101000a900473ffffffffffffffffffffffffffffffffffffffff1673ffffffffffffffffffffffffffffffffffffffff163373ffffffffffffffffffffffffffffffffffffffff1603611b9c57600191505b8080611ba7906136d6565b915050611b19565b506001151581151514611bc157600080fd5b60003390506000808481548110611bdb57611bda613678565b5b9060005260206000200160009054906101000a900473ffffffffffffffffffffffffffffffffffffffff1690506000600360008473ffffffffffffffffffffffffffffffffffffffff1673ffffffffffffffffffffffffffffffffffffffff168152602001908152602001600020600001541461204057600360008373ffffffffffffffffffffffffffffffffffffffff1673ffffffffffffffffffffffffffffffffffffffff16815260200190815260200160002060000154600260008373ffffffffffffffffffffffffffffffffffffffff1673ffffffffffffffffffffffffffffffffffffffff16815260200190815260200160002060000154101561203a57600260008273ffffffffffffffffffffffffffffffffffffffff1673ffffffffffffffffffffffffffffffffffffffff16815260200190815260200160002060010154600560008373ffffffffffffffffffffffffffffffffffffffff1673ffffffffffffffffffffffffffffffffffffffff16815260200190815260200160002080549050101561203457600460008373ffffffffffffffffffffffffffffffffffffffff1673ffffffffffffffffffffffffffffffffffffffff168152602001908152602001600020819080600181540180825580915050600190039060005260206000200160009091909190916101000a81548173ffffffffffffffffffffffffffffffffffffffff021916908373ffffffffffffffffffffffffffffffffffffffff160217905550600560008273ffffffffffffffffffffffffffffffffffffffff1673ffffffffffffffffffffffffffffffffffffffff168152602001908152602001600020829080600181540180825580915050600190039060005260206000200160009091909190916101000a81548173ffffffffffffffffffffffffffffffffffffffff021916908373ffffffffffffffffffffffffffffffffffffffff160217905550600260008273ffffffffffffffffffffffffffffffffffffffff1673ffffffffffffffffffffffffffffffffffffffff16815260200190815260200160002060000154600360008473ffffffffffffffffffffffffffffffffffffffff1673ffffffffffffffffffffffffffffffffffffffff1681526020019081526020016000206000016000828254611f3e9190613897565b9250508190555042600260008373ffffffffffffffffffffffffffffffffffffffff1673ffffffffffffffffffffffffffffffffffffffff16815260200190815260200160002060040181905550600260008273ffffffffffffffffffffffffffffffffffffffff1673ffffffffffffffffffffffffffffffffffffffff168152602001908152602001600020600501829080600181540180825580915050600190039060005260206000200160009091909190916101000a81548173ffffffffffffffffffffffffffffffffffffffff021916908373ffffffffffffffffffffffffffffffffffffffff160217905550612035565b5b61203b565b5b612041565b5b50505050565b6004602052816000526040600020818154811061206357600080fd5b906000526020600020016000915091509054906101000a900473ffffffffffffffffffffffffffffffffffffffff1681565b6060600180548060200260200160405190810160405280929190818152602001828054801561211957602002820191906000526020600020905b8160009054906101000a900473ffffffffffffffffffffffffffffffffffffffff1673ffffffffffffffffffffffffffffffffffffffff16815260200190600101908083116120cf575b5050505050905090565b60606040518060400160405280600c81526020017f48656c6c6f20576f726c64210000000000000000000000000000000000000000815250905090565b6000600560008473ffffffffffffffffffffffffffffffffffffffff1673ffffffffffffffffffffffffffffffffffffffff16815260200190815260200160002080548060200260200160405190810160405280929190818152602001828054801561222157602002820191906000526020600020905b8160009054906101000a900473ffffffffffffffffffffffffffffffffffffffff1673ffffffffffffffffffffffffffffffffffffffff16815260200190600101908083116121d7575b5050505050905060005b81518110156122f6578273ffffffffffffffffffffffffffffffffffffffff16600560008673ffffffffffffffffffffffffffffffffffffffff1673ffffffffffffffffffffffffffffffffffffffff168152602001908152602001600020828154811061229c5761229b613678565b5b9060005260206000200160009054906101000a900473ffffffffffffffffffffffffffffffffffffffff1673ffffffffffffffffffffffffffffffffffffffff1603156122f65780806122ee906136d6565b91505061222b565b60008190505b6001835161230a9190613897565b81101561244557600560008673ffffffffffffffffffffffffffffffffffffffff1673ffffffffffffffffffffffffffffffffffffffff16815260200190815260200160002060018261235d91906137e1565b8154811061236e5761236d613678565b5b9060005260206000200160009054906101000a900473ffffffffffffffffffffffffffffffffffffffff16600560008773ffffffffffffffffffffffffffffffffffffffff1673ffffffffffffffffffffffffffffffffffffffff16815260200190815260200160002082815481106123ea576123e9613678565b5b9060005260206000200160006101000a81548173ffffffffffffffffffffffffffffffffffffffff021916908373ffffffffffffffffffffffffffffffffffffffff160217905550808061243d906136d6565b9150506122fc565b50600560008573ffffffffffffffffffffffffffffffffffffffff1673ffffffffffffffffffffffffffffffffffffffff1681526020019081526020016000206001600560008773ffffffffffffffffffffffffffffffffffffffff1673ffffffffffffffffffffffffffffffffffffffff168152602001908152602001600020805490506124d49190613897565b815481106124e5576124e4613678565b5b9060005260206000200160006101000a81549073ffffffffffffffffffffffffffffffffffffffff02191690556000600460008573ffffffffffffffffffffffffffffffffffffffff1673ffffffffffffffffffffffffffffffffffffffff1681526020019081526020016000208054806020026020016040519081016040528092919081815260200182805480156125d357602002820191906000526020600020905b8160009054906101000a900473ffffffffffffffffffffffffffffffffffffffff1673ffffffffffffffffffffffffffffffffffffffff1681526020019060010190808311612589575b5050505050905060005b81518110156126a8578573ffffffffffffffffffffffffffffffffffffffff16600460008773ffffffffffffffffffffffffffffffffffffffff1673ffffffffffffffffffffffffffffffffffffffff168152602001908152602001600020828154811061264e5761264d613678565b5b9060005260206000200160009054906101000a900473ffffffffffffffffffffffffffffffffffffffff1673ffffffffffffffffffffffffffffffffffffffff1603156126a85780806126a0906136d6565b9150506125dd565b60008190505b600183516126bc9190613897565b8110156127f757600460008773ffffffffffffffffffffffffffffffffffffffff1673ffffffffffffffffffffffffffffffffffffffff16815260200190815260200160002060018261270f91906137e1565b815481106127205761271f613678565b5b9060005260206000200160009054906101000a900473ffffffffffffffffffffffffffffffffffffffff16600460008873ffffffffffffffffffffffffffffffffffffffff1673ffffffffffffffffffffffffffffffffffffffff168152602001908152602001600020828154811061279c5761279b613678565b5b9060005260206000200160006101000a81548173ffffffffffffffffffffffffffffffffffffffff021916908373ffffffffffffffffffffffffffffffffffffffff16021790555080806127ef906136d6565b9150506126ae565b50600460008673ffffffffffffffffffffffffffffffffffffffff1673ffffffffffffffffffffffffffffffffffffffff1681526020019081526020016000206001600560008873ffffffffffffffffffffffffffffffffffffffff1673ffffffffffffffffffffffffffffffffffffffff168152602001908152602001600020805490506128869190613897565b8154811061289757612896613678565b5b9060005260206000200160006101000a81549073ffffffffffffffffffffffffffffffffffffffff0219169055505050505050565b6040518060c001604052806000815260200160008152602001600081526020016060815260200160008152602001606081525090565b828054828255906000526020600020908101928215612951579160200282015b828111156129505782518290805190602001906129409291906129ec565b5091602001919060010190612922565b5b50905061295e9190612a72565b5090565b8280548282559060005260206000209081019282156129db579160200282015b828111156129da5782518260006101000a81548173ffffffffffffffffffffffffffffffffffffffff021916908373ffffffffffffffffffffffffffffffffffffffff16021790555091602001919060010190612982565b5b5090506129e89190612a96565b5090565b8280546129f89061374d565b90600052602060002090601f016020900481019282612a1a5760008555612a61565b82601f10612a3357805160ff1916838001178555612a61565b82800160010185558215612a61579182015b82811115612a60578251825591602001919060010190612a45565b5b509050612a6e9190612a96565b5090565b5b80821115612a925760008181612a899190612ab3565b50600101612a73565b5090565b5b80821115612aaf576000816000905550600101612a97565b5090565b508054612abf9061374d565b6000825580601f10612ad15750612af0565b601f016020900490600052602060002090810190612aef9190612a96565b5b50565b6000604051905090565b600080fd5b600080fd5b600073ffffffffffffffffffffffffffffffffffffffff82169050919050565b6000612b3282612b07565b9050919050565b612b4281612b27565b8114612b4d57600080fd5b50565b600081359050612b5f81612b39565b92915050565b600060208284031215612b7b57612b7a612afd565b5b6000612b8984828501612b50565b91505092915050565b6000819050919050565b612ba581612b92565b82525050565b6000602082019050612bc06000830184612b9c565b92915050565b600081519050919050565b600082825260208201905092915050565b6000819050602082019050919050565b612bfb81612b92565b82525050565b6000612c0d8383612bf2565b60208301905092915050565b6000602082019050919050565b6000612c3182612bc6565b612c3b8185612bd1565b9350612c4683612be2565b8060005b83811015612c77578151612c5e8882612c01565b9750612c6983612c19565b925050600181019050612c4a565b5085935050505092915050565b600081519050919050565b600082825260208201905092915050565b6000819050602082019050919050565b612cb981612b27565b82525050565b6000612ccb8383612cb0565b60208301905092915050565b6000602082019050919050565b6000612cef82612c84565b612cf98185612c8f565b9350612d0483612ca0565b8060005b83811015612d35578151612d1c8882612cbf565b9750612d2783612cd7565b925050600181019050612d08565b5085935050505092915050565b600060c0820190508181036000830152612d5c8189612c26565b90508181036020830152612d708188612c26565b90508181036040830152612d848187612c26565b90508181036060830152612d988186612c26565b90508181036080830152612dac8185612ce4565b905081810360a0830152612dc08184612c26565b9050979650505050505050565b612dd681612b92565b8114612de157600080fd5b50565b600081359050612df381612dcd565b92915050565b600060208284031215612e0f57612e0e612afd565b5b6000612e1d84828501612de4565b91505092915050565b612e2f81612b27565b82525050565b6000602082019050612e4a6000830184612e26565b92915050565b600081519050919050565b600082825260208201905092915050565b6000819050602082019050919050565b600081519050919050565b600082825260208201905092915050565b60005b83811015612eb6578082015181840152602081019050612e9b565b83811115612ec5576000848401525b50505050565b6000601f19601f8301169050919050565b6000612ee782612e7c565b612ef18185612e87565b9350612f01818560208601612e98565b612f0a81612ecb565b840191505092915050565b6000612f218383612edc565b905092915050565b6000602082019050919050565b6000612f4182612e50565b612f4b8185612e5b565b935083602082028501612f5d85612e6c565b8060005b85811015612f995784840389528151612f7a8582612f15565b9450612f8583612f29565b925060208a01995050600181019050612f61565b50829750879550505050505092915050565b600082825260208201905092915050565b6000612fc782612c84565b612fd18185612fab565b9350612fdc83612ca0565b8060005b8381101561300d578151612ff48882612cbf565b9750612fff83612cd7565b925050600181019050612fe0565b5085935050505092915050565b600060c0830160008301516130326000860182612bf2565b5060208301516130456020860182612bf2565b5060408301516130586040860182612bf2565b50606083015184820360608601526130708282612f36565b91505060808301516130856080860182612bf2565b5060a083015184820360a086015261309d8282612fbc565b9150508091505092915050565b600060208201905081810360008301526130c4818461301a565b905092915050565b600080fd5b7f4e487b7100000000000000000000000000000000000000000000000000000000600052604160045260246000fd5b61310982612ecb565b810181811067ffffffffffffffff82111715613128576131276130d1565b5b80604052505050565b600061313b612af3565b90506131478282613100565b919050565b600067ffffffffffffffff821115613167576131666130d1565b5b602082029050602081019050919050565b600080fd5b600080fd5b600067ffffffffffffffff82111561319d5761319c6130d1565b5b6131a682612ecb565b9050602081019050919050565b82818337600083830152505050565b60006131d56131d084613182565b613131565b9050828152602081018484840111156131f1576131f061317d565b5b6131fc8482856131b3565b509392505050565b600082601f830112613219576132186130cc565b5b81356132298482602086016131c2565b91505092915050565b60006132456132408461314c565b613131565b9050808382526020820190506020840283018581111561326857613267613178565b5b835b818110156132af57803567ffffffffffffffff81111561328d5761328c6130cc565b5b80860161329a8982613204565b8552602085019450505060208101905061326a565b5050509392505050565b600082601f8301126132ce576132cd6130cc565b5b81356132de848260208601613232565b91505092915050565b600067ffffffffffffffff821115613302576133016130d1565b5b602082029050602081019050919050565b6000613326613321846132e7565b613131565b9050808382526020820190506020840283018581111561334957613348613178565b5b835b81811015613372578061335e8882612b50565b84526020840193505060208101905061334b565b5050509392505050565b600082601f830112613391576133906130cc565b5b81356133a1848260208601613313565b91505092915050565b60008060008060008060c087890312156133c7576133c6612afd565b5b60006133d589828a01612de4565b96505060206133e689828a01612de4565b95505060406133f789828a01612de4565b945050606087013567ffffffffffffffff81111561341857613417612b02565b5b61342489828a016132b9565b935050608061343589828a01612de4565b92505060a087013567ffffffffffffffff81111561345657613455612b02565b5b61346289828a0161337c565b9150509295509295509295565b60008115159050919050565b6134848161346f565b82525050565b600060208201905061349f600083018461347b565b92915050565b600081519050919050565b600082825260208201905092915050565b60006134cc826134a5565b6134d681856134b0565b93506134e6818560208601612e98565b6134ef81612ecb565b840191505092915050565b6000602082019050818103600083015261351481846134c1565b905092915050565b6000806040838503121561353357613532612afd565b5b600061354185828601612b50565b925050602061355285828601612de4565b9150509250929050565b60006080820190506135716000830187612b9c565b61357e6020830186612b9c565b61358b6040830185612b9c565b6135986060830184612b9c565b95945050505050565b6000602082840312156135b7576135b6612afd565b5b600082013567ffffffffffffffff8111156135d5576135d4612b02565b5b6135e184828501613204565b91505092915050565b600060208201905081810360008301526136048184612ce4565b905092915050565b600082825260208201905092915050565b600061362882612e7c565b613632818561360c565b9350613642818560208601612e98565b61364b81612ecb565b840191505092915050565b60006020820190508181036000830152613670818461361d565b905092915050565b7f4e487b7100000000000000000000000000000000000000000000000000000000600052603260045260246000fd5b7f4e487b7100000000000000000000000000000000000000000000000000000000600052601160045260246000fd5b60006136e182612b92565b91507fffffffffffffffffffffffffffffffffffffffffffffffffffffffffffffffff8203613713576137126136a7565b5b600182019050919050565b7f4e487b7100000000000000000000000000000000000000000000000000000000600052602260045260246000fd5b6000600282049050600182168061376557607f821691505b6020821081036137785761377761371e565b5b50919050565b60008160601b9050919050565b60006137968261377e565b9050919050565b60006137a88261378b565b9050919050565b6137c06137bb82612b27565b61379d565b82525050565b60006137d282846137af565b60148201915081905092915050565b60006137ec82612b92565b91506137f783612b92565b9250827fffffffffffffffffffffffffffffffffffffffffffffffffffffffffffffffff0382111561382c5761382b6136a7565b5b828201905092915050565b7f4e487b7100000000000000000000000000000000000000000000000000000000600052601260045260246000fd5b600061387182612b92565b915061387c83612b92565b92508261388c5761388b613837565b5b828204905092915050565b60006138a282612b92565b91506138ad83612b92565b9250828210156138c0576138bf6136a7565b5b82820390509291505056fea264697066735822122094897247d06d370421f2dd0c20916d6273c0bb4cd19973b5855b0944e1b001f664736f6c634300080d0033",
  "immutableReferences": {},
  "source": "// SPDX-License-Identifier: MIT\n\npragma solidity >= 0.5.0 < 0.9.0;\n\nstruct Request {\n    uint space;\n    uint duplications;\n    uint duration;\n    string[] cids;\n    uint startTime;\n    address[] providersList;\n}\n\nstruct Provide {\n    uint space;\n}\n\n// duration \n// access data \n\ncontract DiskSpaceRenter {\n\n    modifier afterCompletion(address r) {\n        uint deadline = requesterList[r].startTime + requesterList[r].duration;\n        require(block.timestamp > deadline);\n        _;\n    }\n\n\n    address[] public requesters;\n    address[] public providers;\n    mapping (address => Request) public requesterList;\n    mapping (address => Provide) public providerList;\n\n    // one provider can have multiple requesters\n    mapping (address => address[]) public providerToRequester;\n\n    // one requester can have multiple providers\n    mapping (address => address[]) public requesterToProvider;\n\n    //address to amount paid  by requester and deposited to the contract account and not released to the provider account yet\n    mapping (address => uint) public requesterFunds;\n    \n    modifier onlyRequester {\n        bool flag = false;\n        for(uint i=0; i<requesters.length; i++) {\n            if(msg.sender == requesters[i]) flag = true;\n        }\n        require(flag == true);\n        _;\n    }\n\n    function toBytes(address a) public pure returns (bytes memory) {\n        return abi.encodePacked(a);\n    }\n\n    function sayHello() public pure returns (string memory) {\n        return 'Hello World!';\n    }\n\n    modifier onlyProvider {\n        bool flag = false;\n        for(uint i=0; i<providers.length; i++) {\n            if(msg.sender == providers[i]) flag = true;\n        }\n        require(flag == true);\n        _;\n    }\n\n\n    function addRequester() public returns( bool added){\n        address requester = msg.sender;\n        bool flag = true;\n        for(uint i=0; i<requesters.length; i++) {\n            if(requesters[i] == requester) flag = false;\n        }\n        for(uint i=0; i<providers.length; i++) {\n            if(providers[i] == requester) flag = false;\n        }\n        if(flag){ requesters.push(msg.sender);\n        return true;}\n        return false;\n    }\n\n    function addProvider(uint _spaceInMB) public returns( bool added){\n        address pro = msg.sender;\n        bool flag = true;\n        for(uint i=0; i<requesters.length; i++) {\n            if(requesters[i] == pro) flag = false;\n        }\n        for(uint i=0; i<providers.length; i++) {\n            if(providers[i] == pro) flag = false;\n        }\n        if(flag) {\n            providers.push(msg.sender);\n\n            Provide memory p = Provide(_spaceInMB);\n            providerList[msg.sender] = p;\n            return true;\n        }\n        return false;\n    }\n    function getRequesters()public view returns( address[] memory){\n        return requesters;\n    }\n\n    function getProviders()public view returns(address[] memory){\n        return providers;\n    }\n\n    function getCurrentUser()public view returns( address  user){\n        return msg.sender;\n    }\n\n    function currentUserTransaction()public view returns(Request memory r){\n        return requesterList[msg.sender];\n    }\n\n    function addCIDToTransaction(string memory cid) public{\n        requesterList[msg.sender].cids.push(cid);\n    }\n    \n    // front end should give array of cids as argument to this func\n    function requestSpace(uint _spaceInMB, uint _duplications, uint _duration, string[] memory _cids,uint startTime, address[] memory gettingProvider) public payable onlyRequester {\n        // duration in seconds\n        // price is a function of requesters space, duration and duplications\n        // uint price = 2000000000000000000;\n        // msg.value = price;\n        require(msg.sender.balance > msg.value);\n        \n        Request memory r = Request(_spaceInMB, _duplications, _duration, _cids, startTime, gettingProvider);\n        requesterList[msg.sender] = r;\n        payRent();\n\n        // keeping track of amount deposited to contract account by each requester\n        requesterFunds[msg.sender] = msg.value;\n\n        // withdraw money from requesters account\n        // put it into contarcts account\n        // release into provider after durtion is complete\n\n        // transfer is from contract to any other payable address\n        // payable(address(this)).transfer(msg.value);       \n    }\n\n    function payRent() payable public {\n        //learn how to hide this function\n    }\n\n    function approveRequest (uint requester_index) public onlyProvider {\n        address caller = msg.sender;\n        address requester = requesters[requester_index];\n        if(providerList[caller].space != 0) {\n            if(requesterList[requester].space < providerList[caller].space) {\n                if(requesterToProvider[requester].length < requesterList[requester].duplications) {\n                    providerToRequester[caller].push(requester);\n                    requesterToProvider[requester].push(caller);\n\n                    providerList[caller].space -= requesterList[requester].space;\n\n                    requesterList[requester].startTime = block.timestamp;\n                    requesterList[requester].providersList.push(caller);\n                }\n\n                else {\n                    // already y providers exist\n                }\n            }\n            else {\n                // space insufficient\n            }\n        }\n        else {\n            // not a provider\n        }\n    }\n\n    // releasePayment() is called by provider. it checks the duration and transfers the funds\n    // argument is requesters address\n    function releasePayment (address r) public afterCompletion(r) onlyProvider {\n        require(providerToRequester[msg.sender].length != 0);\n        uint amount = requesterFunds[r]/requesterList[r].duplications;\n        payable(msg.sender).transfer(amount);\n        updateMappings(r, msg.sender);\n    }\n\n    function updateMappings(address r, address p) private {\n        // in requester, remove provider\n        address[] memory providerArray = requesterToProvider[r];\n        \n        uint index;\n        for(index=0; index<providerArray.length; index++) {\n            if(requesterToProvider[r][index] == p) {\n                break;\n            }\n        }\n        for(uint j = index; j < providerArray.length-1; j++) {\n            requesterToProvider[r][j] = requesterToProvider[r][j+1];\n        }\n        delete requesterToProvider[r][requesterToProvider[r].length-1];\n\n\n        // in provider remove requester\n        address[] memory requesterArray = providerToRequester[p];\n        \n        uint ind;\n        for(ind=0; ind<requesterArray.length; ind++) {\n            if(providerToRequester[p][ind] == r) {\n                break;\n            }\n        }\n        for(uint j = ind; j <requesterArray.length-1; j++) {\n            providerToRequester[p][j] = providerToRequester[p][j+1];\n        }\n        delete providerToRequester[p][requesterToProvider[p].length-1];\n    }\n    uint[] public space;\n    uint[] public duplicationss;\n    uint[] public duration;\n    uint[] public sstartTime;\n    address[] public requestersOfTransactions;\n    uint[] public indexes;\n    function getAllTransactions() public returns(uint[] memory,uint[] memory , uint[] memory, uint[] memory, address[] memory, uint[] memory) {\n        for(uint i = 0;i<requesters.length;i++){\n            if(requesterList[requesters[i]].startTime!=0){\n                requestersOfTransactions.push(requesters[i]);\n                space.push(requesterList[requesters[i]].space);\n                duplicationss.push(requesterList[requesters[i]].duplications);\n                sstartTime.push(requesterList[requesters[i]].startTime);\n                duration.push(requesterList[requesters[i]].duration);\n                indexes.push(i);\n            }\n        }\n        return (space,duplicationss,duration,sstartTime,requestersOfTransactions,indexes);\n    }\n}\n",
  "sourcePath": "/home/ikjot-2605/disk_space_renting_system_cli/contracts/DiskSpaceRenter.sol",
  "compiler": {
    "name": "solc",
    "version": "0.8.13+commit.abaa5c0e.Emscripten.clang"
  },
  "schemaVersion": "3.4.6",
  "updatedAt": "2022-04-07T19:24:42.554Z",
  "networkType": "ethereum",
  "devdoc": {
    "kind": "dev",
    "methods": {},
    "version": 1
  },
  "userdoc": {
    "kind": "user",
    "methods": {},
    "version": 1
  }
}